{
  "address": "0xb39950AFcD43F55cf8352e2e7c8cBA4a8Ae3eDC2",
  "abi": [
    {
      "inputs": [
        {
          "internalType": "address",
          "name": "vrfCoordinator",
          "type": "address"
        },
        {
          "internalType": "bytes32",
          "name": "keyHash",
          "type": "bytes32"
        },
        {
          "internalType": "uint64",
          "name": "subscriptionId",
          "type": "uint64"
        },
        {
          "internalType": "uint32",
          "name": "callbackGasLimit",
          "type": "uint32"
        },
        {
          "internalType": "string[3]",
          "name": "dogUris",
          "type": "string[3]"
        }
      ],
      "stateMutability": "nonpayable",
      "type": "constructor"
    },
    {
      "inputs": [
        {
          "internalType": "address",
          "name": "have",
          "type": "address"
        },
        {
          "internalType": "address",
          "name": "want",
          "type": "address"
        }
      ],
      "name": "OnlyCoordinatorCanFulfill",
      "type": "error"
    },
    {
      "inputs": [],
      "name": "RandomIpfs_moneyTransferFailed",
      "type": "error"
    },
    {
      "inputs": [],
      "name": "RandomIpfs_notEnoughEthSent",
      "type": "error"
    },
    {
      "inputs": [],
      "name": "RandomIpfs_rangeOutOfBounds",
      "type": "error"
    },
    {
      "anonymous": false,
      "inputs": [
        {
          "indexed": true,
          "internalType": "address",
          "name": "owner",
          "type": "address"
        },
        {
          "indexed": true,
          "internalType": "address",
          "name": "approved",
          "type": "address"
        },
        {
          "indexed": true,
          "internalType": "uint256",
          "name": "tokenId",
          "type": "uint256"
        }
      ],
      "name": "Approval",
      "type": "event"
    },
    {
      "anonymous": false,
      "inputs": [
        {
          "indexed": true,
          "internalType": "address",
          "name": "owner",
          "type": "address"
        },
        {
          "indexed": true,
          "internalType": "address",
          "name": "operator",
          "type": "address"
        },
        {
          "indexed": false,
          "internalType": "bool",
          "name": "approved",
          "type": "bool"
        }
      ],
      "name": "ApprovalForAll",
      "type": "event"
    },
    {
      "anonymous": false,
      "inputs": [
        {
          "indexed": true,
          "internalType": "address",
          "name": "previousOwner",
          "type": "address"
        },
        {
          "indexed": true,
          "internalType": "address",
          "name": "newOwner",
          "type": "address"
        }
      ],
      "name": "OwnershipTransferred",
      "type": "event"
    },
    {
      "anonymous": false,
      "inputs": [
        {
          "indexed": true,
          "internalType": "address",
          "name": "from",
          "type": "address"
        },
        {
          "indexed": true,
          "internalType": "address",
          "name": "to",
          "type": "address"
        },
        {
          "indexed": true,
          "internalType": "uint256",
          "name": "tokenId",
          "type": "uint256"
        }
      ],
      "name": "Transfer",
      "type": "event"
    },
    {
      "anonymous": false,
      "inputs": [
        {
          "indexed": false,
          "internalType": "enum RandomIpfs.Breed",
          "name": "dogBreed",
          "type": "uint8"
        },
        {
          "indexed": false,
          "internalType": "address",
          "name": "minter",
          "type": "address"
        }
      ],
      "name": "nftMinted",
      "type": "event"
    },
    {
      "anonymous": false,
      "inputs": [
        {
          "indexed": true,
          "internalType": "address",
          "name": "sender",
          "type": "address"
        },
        {
          "indexed": true,
          "internalType": "uint256",
          "name": "requestId",
          "type": "uint256"
        }
      ],
      "name": "nftRequested",
      "type": "event"
    },
    {
      "inputs": [
        {
          "internalType": "address",
          "name": "to",
          "type": "address"
        },
        {
          "internalType": "uint256",
          "name": "tokenId",
          "type": "uint256"
        }
      ],
      "name": "approve",
      "outputs": [],
      "stateMutability": "nonpayable",
      "type": "function"
    },
    {
      "inputs": [
        {
          "internalType": "address",
          "name": "owner",
          "type": "address"
        }
      ],
      "name": "balanceOf",
      "outputs": [
        {
          "internalType": "uint256",
          "name": "",
          "type": "uint256"
        }
      ],
      "stateMutability": "view",
      "type": "function"
    },
    {
      "inputs": [
        {
          "internalType": "uint256",
          "name": "tokenId",
          "type": "uint256"
        }
      ],
      "name": "getApproved",
      "outputs": [
        {
          "internalType": "address",
          "name": "",
          "type": "address"
        }
      ],
      "stateMutability": "view",
      "type": "function"
    },
    {
      "inputs": [],
      "name": "getChanceArray",
      "outputs": [
        {
          "internalType": "uint256[3]",
          "name": "",
          "type": "uint256[3]"
        }
      ],
      "stateMutability": "pure",
      "type": "function"
    },
    {
      "inputs": [],
      "name": "getFee",
      "outputs": [
        {
          "internalType": "uint256",
          "name": "",
          "type": "uint256"
        }
      ],
      "stateMutability": "pure",
      "type": "function"
    },
    {
      "inputs": [
        {
          "internalType": "uint256",
          "name": "moddedNum",
          "type": "uint256"
        }
      ],
      "name": "getPupType",
      "outputs": [
        {
          "internalType": "enum RandomIpfs.Breed",
          "name": "",
          "type": "uint8"
        }
      ],
      "stateMutability": "pure",
      "type": "function"
    },
    {
      "inputs": [],
      "name": "getSubscriptionId",
      "outputs": [
        {
          "internalType": "uint256",
          "name": "",
          "type": "uint256"
        }
      ],
      "stateMutability": "view",
      "type": "function"
    },
    {
      "inputs": [],
      "name": "getTokenId",
      "outputs": [
        {
          "internalType": "uint256",
          "name": "",
          "type": "uint256"
        }
      ],
      "stateMutability": "view",
      "type": "function"
    },
    {
      "inputs": [],
      "name": "getVftCoordinator",
      "outputs": [
        {
          "internalType": "contract VRFCoordinatorV2Interface",
          "name": "",
          "type": "address"
        }
      ],
      "stateMutability": "view",
      "type": "function"
    },
    {
      "inputs": [
        {
          "internalType": "address",
          "name": "owner",
          "type": "address"
        },
        {
          "internalType": "address",
          "name": "operator",
          "type": "address"
        }
      ],
      "name": "isApprovedForAll",
      "outputs": [
        {
          "internalType": "bool",
          "name": "",
          "type": "bool"
        }
      ],
      "stateMutability": "view",
      "type": "function"
    },
    {
      "inputs": [],
      "name": "name",
      "outputs": [
        {
          "internalType": "string",
          "name": "",
          "type": "string"
        }
      ],
      "stateMutability": "view",
      "type": "function"
    },
    {
      "inputs": [],
      "name": "owner",
      "outputs": [
        {
          "internalType": "address",
          "name": "",
          "type": "address"
        }
      ],
      "stateMutability": "view",
      "type": "function"
    },
    {
      "inputs": [
        {
          "internalType": "uint256",
          "name": "tokenId",
          "type": "uint256"
        }
      ],
      "name": "ownerOf",
      "outputs": [
        {
          "internalType": "address",
          "name": "",
          "type": "address"
        }
      ],
      "stateMutability": "view",
      "type": "function"
    },
    {
      "inputs": [
        {
          "internalType": "uint256",
          "name": "requestId",
          "type": "uint256"
        },
        {
          "internalType": "uint256[]",
          "name": "randomWords",
          "type": "uint256[]"
        }
      ],
      "name": "rawFulfillRandomWords",
      "outputs": [],
      "stateMutability": "nonpayable",
      "type": "function"
    },
    {
      "inputs": [],
      "name": "renounceOwnership",
      "outputs": [],
      "stateMutability": "nonpayable",
      "type": "function"
    },
    {
      "inputs": [],
      "name": "requestNft",
      "outputs": [
        {
          "internalType": "uint256",
          "name": "",
          "type": "uint256"
        }
      ],
      "stateMutability": "payable",
      "type": "function"
    },
    {
      "inputs": [
        {
          "internalType": "address",
          "name": "from",
          "type": "address"
        },
        {
          "internalType": "address",
          "name": "to",
          "type": "address"
        },
        {
          "internalType": "uint256",
          "name": "tokenId",
          "type": "uint256"
        }
      ],
      "name": "safeTransferFrom",
      "outputs": [],
      "stateMutability": "nonpayable",
      "type": "function"
    },
    {
      "inputs": [
        {
          "internalType": "address",
          "name": "from",
          "type": "address"
        },
        {
          "internalType": "address",
          "name": "to",
          "type": "address"
        },
        {
          "internalType": "uint256",
          "name": "tokenId",
          "type": "uint256"
        },
        {
          "internalType": "bytes",
          "name": "data",
          "type": "bytes"
        }
      ],
      "name": "safeTransferFrom",
      "outputs": [],
      "stateMutability": "nonpayable",
      "type": "function"
    },
    {
      "inputs": [
        {
          "internalType": "address",
          "name": "operator",
          "type": "address"
        },
        {
          "internalType": "bool",
          "name": "approved",
          "type": "bool"
        }
      ],
      "name": "setApprovalForAll",
      "outputs": [],
      "stateMutability": "nonpayable",
      "type": "function"
    },
    {
      "inputs": [
        {
          "internalType": "bytes4",
          "name": "interfaceId",
          "type": "bytes4"
        }
      ],
      "name": "supportsInterface",
      "outputs": [
        {
          "internalType": "bool",
          "name": "",
          "type": "bool"
        }
      ],
      "stateMutability": "view",
      "type": "function"
    },
    {
      "inputs": [],
      "name": "symbol",
      "outputs": [
        {
          "internalType": "string",
          "name": "",
          "type": "string"
        }
      ],
      "stateMutability": "view",
      "type": "function"
    },
    {
      "inputs": [
        {
          "internalType": "uint256",
          "name": "tokenId",
          "type": "uint256"
        }
      ],
      "name": "tokenURI",
      "outputs": [
        {
          "internalType": "string",
          "name": "",
          "type": "string"
        }
      ],
      "stateMutability": "view",
      "type": "function"
    },
    {
      "inputs": [
        {
          "internalType": "address",
          "name": "from",
          "type": "address"
        },
        {
          "internalType": "address",
          "name": "to",
          "type": "address"
        },
        {
          "internalType": "uint256",
          "name": "tokenId",
          "type": "uint256"
        }
      ],
      "name": "transferFrom",
      "outputs": [],
      "stateMutability": "nonpayable",
      "type": "function"
    },
    {
      "inputs": [
        {
          "internalType": "address",
          "name": "newOwner",
          "type": "address"
        }
      ],
      "name": "transferOwnership",
      "outputs": [],
      "stateMutability": "nonpayable",
      "type": "function"
    },
    {
      "inputs": [],
      "name": "withdraw",
      "outputs": [],
      "stateMutability": "nonpayable",
      "type": "function"
    }
  ],
  "transactionHash": "0x302a4e4e8dc38a962557e51977ddedb8596fbc47a646facd7172b7c932c6dfcb",
  "args": [
    "0x6168499c0cFfCaCD319c818142124B7A15E857ab",
    "0xd89b2bf150e3b9e13446986e571fb9cab24b13cea0a43ea20a6049a85cc807cc",
    "21405",
    2500000,
    [
      "ipfs://bafyreiflh4wjd2shgk2kguff5gl5uv6ifpdszfgfep2itve3tdzqugx7mu/metadata.json",
      "ipfs://bafyreifto6b6mnmdldfgjdnl7s4xtqiy2y3sxdzeofto4t7kabirethnqa/metadata.json",
      "ipfs://bafyreiba3gghrjx7tyxlomgt3y772wdnts5sz4hrf5esddkka42w7o22be/metadata.json"
    ]
  ],
  "numDeployments": 1,
  "solcInputHash": "1254cc307b05a0538bc0a390f860a079",
  "bytecode": "0x610140604052662386f26fc10000610120908152503480156200002157600080fd5b5060405162004258380380620042588339818101604052810190620000479190620005c0565b6040518060400160405280600981526020017f72616e646f6d4e465400000000000000000000000000000000000000000000008152506040518060400160405280600181526020017f5200000000000000000000000000000000000000000000000000000000000000815250868073ffffffffffffffffffffffffffffffffffffffff1660808173ffffffffffffffffffffffffffffffffffffffff1660601b8152505050816000908051906020019062000104929190620002ab565b5080600190805190602001906200011d929190620002ab565b5050506200014062000134620001dd60201b60201c565b620001e560201b60201c565b8473ffffffffffffffffffffffffffffffffffffffff1660a08173ffffffffffffffffffffffffffffffffffffffff1660601b815250508360c081815250508267ffffffffffffffff1660e08167ffffffffffffffff1660c01b815250508163ffffffff166101008163ffffffff1660e01b8152505080600a906003620001c99291906200033c565b5060006009819055505050505050620008e3565b600033905090565b6000600760009054906101000a900473ffffffffffffffffffffffffffffffffffffffff16905081600760006101000a81548173ffffffffffffffffffffffffffffffffffffffff021916908373ffffffffffffffffffffffffffffffffffffffff1602179055508173ffffffffffffffffffffffffffffffffffffffff168173ffffffffffffffffffffffffffffffffffffffff167f8be0079c531659141344cd1fd0a4f28419497f9722a3daafe3b4186f6b6457e060405160405180910390a35050565b828054620002b99062000787565b90600052602060002090601f016020900481019282620002dd576000855562000329565b82601f10620002f857805160ff191683800117855562000329565b8280016001018555821562000329579182015b82811115620003285782518255916020019190600101906200030b565b5b50905062000338919062000396565b5090565b826003810192821562000383579160200282015b828111156200038257825182908051906020019062000371929190620002ab565b509160200191906001019062000350565b5b509050620003929190620003b5565b5090565b5b80821115620003b157600081600090555060010162000397565b5090565b5b80821115620003d95760008181620003cf9190620003dd565b50600101620003b6565b5090565b508054620003eb9062000787565b6000825580601f10620003ff575062000420565b601f0160209004906000526020600020908101906200041f919062000396565b5b50565b60006200043a620004348462000690565b62000667565b9050808285602086028201111562000457576200045662000856565b5b60005b85811015620004ac57815167ffffffffffffffff81111562000481576200048062000851565b5b8086016200049089826200055f565b855260208501945060208401935050506001810190506200045a565b5050509392505050565b6000620004cd620004c784620006b9565b62000667565b905082815260208101848484011115620004ec57620004eb6200085b565b5b620004f984828562000751565b509392505050565b60008151905062000512816200087b565b92915050565b600082601f83011262000530576200052f62000851565b5b60036200053f84828562000423565b91505092915050565b600081519050620005598162000895565b92915050565b600082601f83011262000577576200057662000851565b5b815162000589848260208601620004b6565b91505092915050565b600081519050620005a381620008af565b92915050565b600081519050620005ba81620008c9565b92915050565b600080600080600060a08688031215620005df57620005de62000865565b5b6000620005ef8882890162000501565b9550506020620006028882890162000548565b94505060406200061588828901620005a9565b9350506060620006288882890162000592565b925050608086015167ffffffffffffffff8111156200064c576200064b62000860565b5b6200065a8882890162000518565b9150509295509295909350565b60006200067362000686565b9050620006818282620007bd565b919050565b6000604051905090565b600067ffffffffffffffff821115620006ae57620006ad62000822565b5b602082029050919050565b600067ffffffffffffffff821115620006d757620006d662000822565b5b620006e2826200086a565b9050602081019050919050565b6000620006fc826200070d565b9050919050565b6000819050919050565b600073ffffffffffffffffffffffffffffffffffffffff82169050919050565b600063ffffffff82169050919050565b600067ffffffffffffffff82169050919050565b60005b838110156200077157808201518184015260208101905062000754565b8381111562000781576000848401525b50505050565b60006002820490506001821680620007a057607f821691505b60208210811415620007b757620007b6620007f3565b5b50919050565b620007c8826200086a565b810181811067ffffffffffffffff82111715620007ea57620007e962000822565b5b80604052505050565b7f4e487b7100000000000000000000000000000000000000000000000000000000600052602260045260246000fd5b7f4e487b7100000000000000000000000000000000000000000000000000000000600052604160045260246000fd5b600080fd5b600080fd5b600080fd5b600080fd5b600080fd5b6000601f19601f8301169050919050565b6200088681620006ef565b81146200089257600080fd5b50565b620008a08162000703565b8114620008ac57600080fd5b50565b620008ba816200072d565b8114620008c657600080fd5b50565b620008d4816200073d565b8114620008e057600080fd5b50565b60805160601c60a05160601c60c05160e05160c01c6101005160e01c610120516138fd6200095b60003960008181610e0a015261119101526000610ee6015260008181610ec301526111b901526000610ea2015260008181610e6601526113030152600081816108b7015261090b01526138fd6000f3fe6080604052600436106101665760003560e01c806370a08231116100d1578063b88d4fde1161008a578063de3d9fb711610064578063de3d9fb71461051d578063e985e9c514610548578063f2fde38b14610585578063fe2f73fe146105ae57610166565b8063b88d4fde1461048c578063c87b56dd146104b5578063ced72f87146104f257610166565b806370a082311461039b578063715018a6146103d85780638da5cb5b146103ef57806395d89b411461041a578063a22cb46514610445578063aa1524911461046e57610166565b806323b872dd1161012357806323b872dd1461028d5780633ccfd60b146102b657806342842e0e146102cd5780635a508656146102f65780635dacf5f4146103335780636352211e1461035e57610166565b8063010a38f51461016b57806301ffc9a71461019657806306fdde03146101d3578063081812fc146101fe578063095ea7b31461023b5780631fe543e314610264575b600080fd5b34801561017757600080fd5b506101806105d9565b60405161018d9190612f7f565b60405180910390f35b3480156101a257600080fd5b506101bd60048036038101906101b89190612727565b6105e3565b6040516101ca9190612cd0565b60405180910390f35b3480156101df57600080fd5b506101e86106c5565b6040516101f59190612d9d565b60405180910390f35b34801561020a57600080fd5b5061022560048036038101906102209190612781565b610757565b6040516102329190612c25565b60405180910390f35b34801561024757600080fd5b50610262600480360381019061025d91906126e7565b61079d565b005b34801561027057600080fd5b5061028b600480360381019061028691906127db565b6108b5565b005b34801561029957600080fd5b506102b460048036038101906102af91906125d1565b610975565b005b3480156102c257600080fd5b506102cb6109d5565b005b3480156102d957600080fd5b506102f460048036038101906102ef91906125d1565b610a89565b005b34801561030257600080fd5b5061031d60048036038101906103189190612781565b610aa9565b60405161032a9190612d59565b60405180910390f35b34801561033f57600080fd5b50610348610b8b565b6040516103559190612cb5565b60405180910390f35b34801561036a57600080fd5b5061038560048036038101906103809190612781565b610bb6565b6040516103929190612c25565b60405180910390f35b3480156103a757600080fd5b506103c260048036038101906103bd9190612564565b610c68565b6040516103cf9190612f7f565b60405180910390f35b3480156103e457600080fd5b506103ed610d20565b005b3480156103fb57600080fd5b50610404610d34565b6040516104119190612c25565b60405180910390f35b34801561042657600080fd5b5061042f610d5e565b60405161043c9190612d9d565b60405180910390f35b34801561045157600080fd5b5061046c600480360381019061046791906126a7565b610df0565b005b610476610e06565b6040516104839190612f7f565b60405180910390f35b34801561049857600080fd5b506104b360048036038101906104ae9190612624565b611018565b005b3480156104c157600080fd5b506104dc60048036038101906104d79190612781565b61107a565b6040516104e99190612d9d565b60405180910390f35b3480156104fe57600080fd5b5061050761118d565b6040516105149190612f7f565b60405180910390f35b34801561052957600080fd5b506105326111b5565b60405161053f9190612f7f565b60405180910390f35b34801561055457600080fd5b5061056f600480360381019061056a9190612591565b6111e7565b60405161057c9190612cd0565b60405180910390f35b34801561059157600080fd5b506105ac60048036038101906105a79190612564565b61127b565b005b3480156105ba57600080fd5b506105c36112ff565b6040516105d09190612d3e565b60405180910390f35b6000600954905090565b60007f80ac58cd000000000000000000000000000000000000000000000000000000007bffffffffffffffffffffffffffffffffffffffffffffffffffffffff1916827bffffffffffffffffffffffffffffffffffffffffffffffffffffffff191614806106ae57507f5b5e139f000000000000000000000000000000000000000000000000000000007bffffffffffffffffffffffffffffffffffffffffffffffffffffffff1916827bffffffffffffffffffffffffffffffffffffffffffffffffffffffff1916145b806106be57506106bd82611327565b5b9050919050565b6060600080546106d49061329f565b80601f01602080910402602001604051908101604052809291908181526020018280546107009061329f565b801561074d5780601f106107225761010080835404028352916020019161074d565b820191906000526020600020905b81548152906001019060200180831161073057829003601f168201915b5050505050905090565b600061076282611391565b6004600083815260200190815260200160002060009054906101000a900473ffffffffffffffffffffffffffffffffffffffff169050919050565b60006107a882610bb6565b90508073ffffffffffffffffffffffffffffffffffffffff168373ffffffffffffffffffffffffffffffffffffffff161415610819576040517f08c379a000000000000000000000000000000000000000000000000000000000815260040161081090612f3f565b60405180910390fd5b8073ffffffffffffffffffffffffffffffffffffffff166108386113dc565b73ffffffffffffffffffffffffffffffffffffffff1614806108675750610866816108616113dc565b6111e7565b5b6108a6576040517f08c379a000000000000000000000000000000000000000000000000000000000815260040161089d90612ebf565b60405180910390fd5b6108b083836113e4565b505050565b7f000000000000000000000000000000000000000000000000000000000000000073ffffffffffffffffffffffffffffffffffffffff163373ffffffffffffffffffffffffffffffffffffffff161461096757337f00000000000000000000000000000000000000000000000000000000000000006040517f1cf993f400000000000000000000000000000000000000000000000000000000815260040161095e929190612c40565b60405180910390fd5b610971828261149d565b5050565b6109866109806113dc565b82611633565b6109c5576040517f08c379a00000000000000000000000000000000000000000000000000000000081526004016109bc90612f5f565b60405180910390fd5b6109d08383836116c8565b505050565b6109dd61192f565b600047905060003373ffffffffffffffffffffffffffffffffffffffff1682604051610a0890612c10565b60006040518083038185875af1925050503d8060008114610a45576040519150601f19603f3d011682016040523d82523d6000602084013e610a4a565b606091505b5050905080610a85576040517f333a3c9000000000000000000000000000000000000000000000000000000000815260040160405180910390fd5b5050565b610aa483838360405180602001604052806000815250611018565b505050565b600080600090506000610aba610b8b565b905060005b6003811015610b5357828510158015610af95750818160038110610ae657610ae5613438565b5b602002015183610af69190613097565b85105b15610b1b57806002811115610b1157610b106133da565b5b9350505050610b86565b818160038110610b2e57610b2d613438565b5b602002015183610b3e9190613097565b92508080610b4b90613302565b915050610abf565b506040517fe2d79d3800000000000000000000000000000000000000000000000000000000815260040160405180910390fd5b919050565b610b93612313565b6040518060600160405280600a8152602001601e81526020016064815250905090565b6000806002600084815260200190815260200160002060009054906101000a900473ffffffffffffffffffffffffffffffffffffffff169050600073ffffffffffffffffffffffffffffffffffffffff168173ffffffffffffffffffffffffffffffffffffffff161415610c5f576040517f08c379a0000000000000000000000000000000000000000000000000000000008152600401610c5690612f1f565b60405180910390fd5b80915050919050565b60008073ffffffffffffffffffffffffffffffffffffffff168273ffffffffffffffffffffffffffffffffffffffff161415610cd9576040517f08c379a0000000000000000000000000000000000000000000000000000000008152600401610cd090612e7f565b60405180910390fd5b600360008373ffffffffffffffffffffffffffffffffffffffff1673ffffffffffffffffffffffffffffffffffffffff168152602001908152602001600020549050919050565b610d2861192f565b610d3260006119ad565b565b6000600760009054906101000a900473ffffffffffffffffffffffffffffffffffffffff16905090565b606060018054610d6d9061329f565b80601f0160208091040260200160405190810160405280929190818152602001828054610d999061329f565b8015610de65780601f10610dbb57610100808354040283529160200191610de6565b820191906000526020600020905b815481529060010190602001808311610dc957829003601f168201915b5050505050905090565b610e02610dfb6113dc565b8383611a73565b5050565b60007f0000000000000000000000000000000000000000000000000000000000000000341015610e62576040517fd19c1e5b00000000000000000000000000000000000000000000000000000000815260040160405180910390fd5b60007f000000000000000000000000000000000000000000000000000000000000000073ffffffffffffffffffffffffffffffffffffffff16635d3b1d307f00000000000000000000000000000000000000000000000000000000000000007f000000000000000000000000000000000000000000000000000000000000000060037f000000000000000000000000000000000000000000000000000000000000000060026040518663ffffffff1660e01b8152600401610f27959493929190612ceb565b602060405180830381600087803b158015610f4157600080fd5b505af1158015610f55573d6000803e3d6000fd5b505050506040513d601f19601f82011682018060405250810190610f7991906127ae565b9050336008600083815260200190815260200160002060006101000a81548173ffffffffffffffffffffffffffffffffffffffff021916908373ffffffffffffffffffffffffffffffffffffffff160217905550803373ffffffffffffffffffffffffffffffffffffffff167f586cc220b978bf82e8f45ae256270f535c54435351f4d370ed3e65d744680a2d60405160405180910390a38091505090565b6110296110236113dc565b83611633565b611068576040517f08c379a000000000000000000000000000000000000000000000000000000000815260040161105f90612f5f565b60405180910390fd5b61107484848484611be0565b50505050565b606061108582611391565b60006006600084815260200190815260200160002080546110a59061329f565b80601f01602080910402602001604051908101604052809291908181526020018280546110d19061329f565b801561111e5780601f106110f35761010080835404028352916020019161111e565b820191906000526020600020905b81548152906001019060200180831161110157829003601f168201915b50505050509050600061112f611c3c565b9050600081511415611145578192505050611188565b60008251111561117a578082604051602001611162929190612bec565b60405160208183030381529060405292505050611188565b61118384611c53565b925050505b919050565b60007f0000000000000000000000000000000000000000000000000000000000000000905090565b60007f000000000000000000000000000000000000000000000000000000000000000067ffffffffffffffff16905090565b6000600560008473ffffffffffffffffffffffffffffffffffffffff1673ffffffffffffffffffffffffffffffffffffffff16815260200190815260200160002060008373ffffffffffffffffffffffffffffffffffffffff1673ffffffffffffffffffffffffffffffffffffffff16815260200190815260200160002060009054906101000a900460ff16905092915050565b61128361192f565b600073ffffffffffffffffffffffffffffffffffffffff168173ffffffffffffffffffffffffffffffffffffffff1614156112f3576040517f08c379a00000000000000000000000000000000000000000000000000000000081526004016112ea90612ddf565b60405180910390fd5b6112fc816119ad565b50565b60007f0000000000000000000000000000000000000000000000000000000000000000905090565b60007f01ffc9a7000000000000000000000000000000000000000000000000000000007bffffffffffffffffffffffffffffffffffffffffffffffffffffffff1916827bffffffffffffffffffffffffffffffffffffffffffffffffffffffff1916149050919050565b61139a81611cbb565b6113d9576040517f08c379a00000000000000000000000000000000000000000000000000000000081526004016113d090612f1f565b60405180910390fd5b50565b600033905090565b816004600083815260200190815260200160002060006101000a81548173ffffffffffffffffffffffffffffffffffffffff021916908373ffffffffffffffffffffffffffffffffffffffff160217905550808273ffffffffffffffffffffffffffffffffffffffff1661145783610bb6565b73ffffffffffffffffffffffffffffffffffffffff167f8c5be1e5ebec7d5bd14f71427d1e84f3dd0314c0f7b2291e5b200ac8c7c3b92560405160405180910390a45050565b60006008600084815260200190815260200160002060009054906101000a900473ffffffffffffffffffffffffffffffffffffffff1690506000826000815181106114eb576114ea613438565b5b602002602001015190506000606482611504919061334b565b9050600061151182610aa9565b905061151f84600954611d27565b6115da600954600a83600281111561153a576115396133da565b5b6003811061154b5761154a613438565b5b0180546115579061329f565b80601f01602080910402602001604051908101604052809291908181526020018280546115839061329f565b80156115d05780601f106115a5576101008083540402835291602001916115d0565b820191906000526020600020905b8154815290600101906020018083116115b357829003601f168201915b5050505050611d45565b600960008154809291906115ed90613302565b91905055507f1aa35c020b397b1bb7bb41edc11d97e964a4fc744a734afce0d451b3bab97cc68185604051611623929190612d74565b60405180910390a1505050505050565b60008061163f83610bb6565b90508073ffffffffffffffffffffffffffffffffffffffff168473ffffffffffffffffffffffffffffffffffffffff161480611681575061168081856111e7565b5b806116bf57508373ffffffffffffffffffffffffffffffffffffffff166116a784610757565b73ffffffffffffffffffffffffffffffffffffffff16145b91505092915050565b8273ffffffffffffffffffffffffffffffffffffffff166116e882610bb6565b73ffffffffffffffffffffffffffffffffffffffff161461173e576040517f08c379a000000000000000000000000000000000000000000000000000000000815260040161173590612dff565b60405180910390fd5b600073ffffffffffffffffffffffffffffffffffffffff168273ffffffffffffffffffffffffffffffffffffffff1614156117ae576040517f08c379a00000000000000000000000000000000000000000000000000000000081526004016117a590612e3f565b60405180910390fd5b6117b9838383611db9565b6117c46000826113e4565b6001600360008573ffffffffffffffffffffffffffffffffffffffff1673ffffffffffffffffffffffffffffffffffffffff1681526020019081526020016000206000828254611814919061311e565b925050819055506001600360008473ffffffffffffffffffffffffffffffffffffffff1673ffffffffffffffffffffffffffffffffffffffff168152602001908152602001600020600082825461186b9190613097565b92505081905550816002600083815260200190815260200160002060006101000a81548173ffffffffffffffffffffffffffffffffffffffff021916908373ffffffffffffffffffffffffffffffffffffffff160217905550808273ffffffffffffffffffffffffffffffffffffffff168473ffffffffffffffffffffffffffffffffffffffff167fddf252ad1be2c89b69c2b068fc378daa952ba7f163c4a11628f55a4df523b3ef60405160405180910390a461192a838383611dbe565b505050565b6119376113dc565b73ffffffffffffffffffffffffffffffffffffffff16611955610d34565b73ffffffffffffffffffffffffffffffffffffffff16146119ab576040517f08c379a00000000000000000000000000000000000000000000000000000000081526004016119a290612eff565b60405180910390fd5b565b6000600760009054906101000a900473ffffffffffffffffffffffffffffffffffffffff16905081600760006101000a81548173ffffffffffffffffffffffffffffffffffffffff021916908373ffffffffffffffffffffffffffffffffffffffff1602179055508173ffffffffffffffffffffffffffffffffffffffff168173ffffffffffffffffffffffffffffffffffffffff167f8be0079c531659141344cd1fd0a4f28419497f9722a3daafe3b4186f6b6457e060405160405180910390a35050565b8173ffffffffffffffffffffffffffffffffffffffff168373ffffffffffffffffffffffffffffffffffffffff161415611ae2576040517f08c379a0000000000000000000000000000000000000000000000000000000008152600401611ad990612e5f565b60405180910390fd5b80600560008573ffffffffffffffffffffffffffffffffffffffff1673ffffffffffffffffffffffffffffffffffffffff16815260200190815260200160002060008473ffffffffffffffffffffffffffffffffffffffff1673ffffffffffffffffffffffffffffffffffffffff16815260200190815260200160002060006101000a81548160ff0219169083151502179055508173ffffffffffffffffffffffffffffffffffffffff168373ffffffffffffffffffffffffffffffffffffffff167f17307eab39ab6107e8899845ad3d59bd9653f200f220920489ca2b5937696c3183604051611bd39190612cd0565b60405180910390a3505050565b611beb8484846116c8565b611bf784848484611dc3565b611c36576040517f08c379a0000000000000000000000000000000000000000000000000000000008152600401611c2d90612dbf565b60405180910390fd5b50505050565b606060405180602001604052806000815250905090565b6060611c5e82611391565b6000611c68611c3c565b90506000815111611c885760405180602001604052806000815250611cb3565b80611c9284611f5a565b604051602001611ca3929190612bec565b6040516020818303038152906040525b915050919050565b60008073ffffffffffffffffffffffffffffffffffffffff166002600084815260200190815260200160002060009054906101000a900473ffffffffffffffffffffffffffffffffffffffff1673ffffffffffffffffffffffffffffffffffffffff1614159050919050565b611d418282604051806020016040528060008152506120bb565b5050565b611d4e82611cbb565b611d8d576040517f08c379a0000000000000000000000000000000000000000000000000000000008152600401611d8490612e9f565b60405180910390fd5b80600660008481526020019081526020016000209080519060200190611db4929190612335565b505050565b505050565b505050565b6000611de48473ffffffffffffffffffffffffffffffffffffffff16612116565b15611f4d578373ffffffffffffffffffffffffffffffffffffffff1663150b7a02611e0d6113dc565b8786866040518563ffffffff1660e01b8152600401611e2f9493929190612c69565b602060405180830381600087803b158015611e4957600080fd5b505af1925050508015611e7a57506040513d601f19601f82011682018060405250810190611e779190612754565b60015b611efd573d8060008114611eaa576040519150601f19603f3d011682016040523d82523d6000602084013e611eaf565b606091505b50600081511415611ef5576040517f08c379a0000000000000000000000000000000000000000000000000000000008152600401611eec90612dbf565b60405180910390fd5b805181602001fd5b63150b7a0260e01b7bffffffffffffffffffffffffffffffffffffffffffffffffffffffff1916817bffffffffffffffffffffffffffffffffffffffffffffffffffffffff191614915050611f52565b600190505b949350505050565b60606000821415611fa2576040518060400160405280600181526020017f300000000000000000000000000000000000000000000000000000000000000081525090506120b6565b600082905060005b60008214611fd4578080611fbd90613302565b915050600a82611fcd91906130ed565b9150611faa565b60008167ffffffffffffffff811115611ff057611fef613467565b5b6040519080825280601f01601f1916602001820160405280156120225781602001600182028036833780820191505090505b5090505b600085146120af5760018261203b919061311e565b9150600a8561204a919061334b565b60306120569190613097565b60f81b81838151811061206c5761206b613438565b5b60200101907effffffffffffffffffffffffffffffffffffffffffffffffffffffffffffff1916908160001a905350600a856120a891906130ed565b9450612026565b8093505050505b919050565b6120c58383612139565b6120d26000848484611dc3565b612111576040517f08c379a000000000000000000000000000000000000000000000000000000000815260040161210890612dbf565b60405180910390fd5b505050565b6000808273ffffffffffffffffffffffffffffffffffffffff163b119050919050565b600073ffffffffffffffffffffffffffffffffffffffff168273ffffffffffffffffffffffffffffffffffffffff1614156121a9576040517f08c379a00000000000000000000000000000000000000000000000000000000081526004016121a090612edf565b60405180910390fd5b6121b281611cbb565b156121f2576040517f08c379a00000000000000000000000000000000000000000000000000000000081526004016121e990612e1f565b60405180910390fd5b6121fe60008383611db9565b6001600360008473ffffffffffffffffffffffffffffffffffffffff1673ffffffffffffffffffffffffffffffffffffffff168152602001908152602001600020600082825461224e9190613097565b92505081905550816002600083815260200190815260200160002060006101000a81548173ffffffffffffffffffffffffffffffffffffffff021916908373ffffffffffffffffffffffffffffffffffffffff160217905550808273ffffffffffffffffffffffffffffffffffffffff16600073ffffffffffffffffffffffffffffffffffffffff167fddf252ad1be2c89b69c2b068fc378daa952ba7f163c4a11628f55a4df523b3ef60405160405180910390a461230f60008383611dbe565b5050565b6040518060600160405280600390602082028036833780820191505090505090565b8280546123419061329f565b90600052602060002090601f01602090048101928261236357600085556123aa565b82601f1061237c57805160ff19168380011785556123aa565b828001600101855582156123aa579182015b828111156123a957825182559160200191906001019061238e565b5b5090506123b791906123bb565b5090565b5b808211156123d45760008160009055506001016123bc565b5090565b60006123eb6123e684612fbf565b612f9a565b9050808382526020820190508285602086028201111561240e5761240d61349b565b5b60005b8581101561243e5781612424888261253a565b845260208401935060208301925050600181019050612411565b5050509392505050565b600061245b61245684612feb565b612f9a565b905082815260208101848484011115612477576124766134a0565b5b61248284828561325d565b509392505050565b6000813590506124998161386b565b92915050565b600082601f8301126124b4576124b3613496565b5b81356124c48482602086016123d8565b91505092915050565b6000813590506124dc81613882565b92915050565b6000813590506124f181613899565b92915050565b60008151905061250681613899565b92915050565b600082601f83011261252157612520613496565b5b8135612531848260208601612448565b91505092915050565b600081359050612549816138b0565b92915050565b60008151905061255e816138b0565b92915050565b60006020828403121561257a576125796134aa565b5b60006125888482850161248a565b91505092915050565b600080604083850312156125a8576125a76134aa565b5b60006125b68582860161248a565b92505060206125c78582860161248a565b9150509250929050565b6000806000606084860312156125ea576125e96134aa565b5b60006125f88682870161248a565b93505060206126098682870161248a565b925050604061261a8682870161253a565b9150509250925092565b6000806000806080858703121561263e5761263d6134aa565b5b600061264c8782880161248a565b945050602061265d8782880161248a565b935050604061266e8782880161253a565b925050606085013567ffffffffffffffff81111561268f5761268e6134a5565b5b61269b8782880161250c565b91505092959194509250565b600080604083850312156126be576126bd6134aa565b5b60006126cc8582860161248a565b92505060206126dd858286016124cd565b9150509250929050565b600080604083850312156126fe576126fd6134aa565b5b600061270c8582860161248a565b925050602061271d8582860161253a565b9150509250929050565b60006020828403121561273d5761273c6134aa565b5b600061274b848285016124e2565b91505092915050565b60006020828403121561276a576127696134aa565b5b6000612778848285016124f7565b91505092915050565b600060208284031215612797576127966134aa565b5b60006127a58482850161253a565b91505092915050565b6000602082840312156127c4576127c36134aa565b5b60006127d28482850161254f565b91505092915050565b600080604083850312156127f2576127f16134aa565b5b60006128008582860161253a565b925050602083013567ffffffffffffffff811115612821576128206134a5565b5b61282d8582860161249f565b9150509250929050565b60006128438383612bb0565b60208301905092915050565b61285881613152565b82525050565b61286781613026565b6128718184613054565b925061287c8261301c565b8060005b838110156128ad5781516128948782612837565b965061289f83613047565b925050600181019050612880565b505050505050565b6128be81613164565b82525050565b6128cd81613170565b82525050565b60006128de82613031565b6128e8818561305f565b93506128f881856020860161326c565b612901816134af565b840191505092915050565b61291581613215565b82525050565b61292481613227565b82525050565b60006129358261303c565b61293f818561307b565b935061294f81856020860161326c565b612958816134af565b840191505092915050565b600061296e8261303c565b612978818561308c565b935061298881856020860161326c565b80840191505092915050565b60006129a160328361307b565b91506129ac826134c0565b604082019050919050565b60006129c460268361307b565b91506129cf8261350f565b604082019050919050565b60006129e760258361307b565b91506129f28261355e565b604082019050919050565b6000612a0a601c8361307b565b9150612a15826135ad565b602082019050919050565b6000612a2d60248361307b565b9150612a38826135d6565b604082019050919050565b6000612a5060198361307b565b9150612a5b82613625565b602082019050919050565b6000612a7360298361307b565b9150612a7e8261364e565b604082019050919050565b6000612a96602e8361307b565b9150612aa18261369d565b604082019050919050565b6000612ab9603e8361307b565b9150612ac4826136ec565b604082019050919050565b6000612adc60208361307b565b9150612ae78261373b565b602082019050919050565b6000612aff60208361307b565b9150612b0a82613764565b602082019050919050565b6000612b2260188361307b565b9150612b2d8261378d565b602082019050919050565b6000612b4560218361307b565b9150612b50826137b6565b604082019050919050565b6000612b68600083613070565b9150612b7382613805565b600082019050919050565b6000612b8b602e8361307b565b9150612b9682613808565b604082019050919050565b612baa816131b9565b82525050565b612bb9816131e7565b82525050565b612bc8816131e7565b82525050565b612bd7816131f1565b82525050565b612be681613201565b82525050565b6000612bf88285612963565b9150612c048284612963565b91508190509392505050565b6000612c1b82612b5b565b9150819050919050565b6000602082019050612c3a600083018461284f565b92915050565b6000604082019050612c55600083018561284f565b612c62602083018461284f565b9392505050565b6000608082019050612c7e600083018761284f565b612c8b602083018661284f565b612c986040830185612bbf565b8181036060830152612caa81846128d3565b905095945050505050565b6000606082019050612cca600083018461285e565b92915050565b6000602082019050612ce560008301846128b5565b92915050565b600060a082019050612d0060008301886128c4565b612d0d6020830187612bdd565b612d1a6040830186612ba1565b612d276060830185612bce565b612d346080830184612bce565b9695505050505050565b6000602082019050612d53600083018461290c565b92915050565b6000602082019050612d6e600083018461291b565b92915050565b6000604082019050612d89600083018561291b565b612d96602083018461284f565b9392505050565b60006020820190508181036000830152612db7818461292a565b905092915050565b60006020820190508181036000830152612dd881612994565b9050919050565b60006020820190508181036000830152612df8816129b7565b9050919050565b60006020820190508181036000830152612e18816129da565b9050919050565b60006020820190508181036000830152612e38816129fd565b9050919050565b60006020820190508181036000830152612e5881612a20565b9050919050565b60006020820190508181036000830152612e7881612a43565b9050919050565b60006020820190508181036000830152612e9881612a66565b9050919050565b60006020820190508181036000830152612eb881612a89565b9050919050565b60006020820190508181036000830152612ed881612aac565b9050919050565b60006020820190508181036000830152612ef881612acf565b9050919050565b60006020820190508181036000830152612f1881612af2565b9050919050565b60006020820190508181036000830152612f3881612b15565b9050919050565b60006020820190508181036000830152612f5881612b38565b9050919050565b60006020820190508181036000830152612f7881612b7e565b9050919050565b6000602082019050612f946000830184612bbf565b92915050565b6000612fa4612fb5565b9050612fb082826132d1565b919050565b6000604051905090565b600067ffffffffffffffff821115612fda57612fd9613467565b5b602082029050602081019050919050565b600067ffffffffffffffff82111561300657613005613467565b5b61300f826134af565b9050602081019050919050565b6000819050919050565b600060039050919050565b600081519050919050565b600081519050919050565b6000602082019050919050565b600081905092915050565b600082825260208201905092915050565b600081905092915050565b600082825260208201905092915050565b600081905092915050565b60006130a2826131e7565b91506130ad836131e7565b9250827fffffffffffffffffffffffffffffffffffffffffffffffffffffffffffffffff038211156130e2576130e161337c565b5b828201905092915050565b60006130f8826131e7565b9150613103836131e7565b925082613113576131126133ab565b5b828204905092915050565b6000613129826131e7565b9150613134836131e7565b9250828210156131475761314661337c565b5b828203905092915050565b600061315d826131c7565b9050919050565b60008115159050919050565b6000819050919050565b60007fffffffff0000000000000000000000000000000000000000000000000000000082169050919050565b60008190506131b482613857565b919050565b600061ffff82169050919050565b600073ffffffffffffffffffffffffffffffffffffffff82169050919050565b6000819050919050565b600063ffffffff82169050919050565b600067ffffffffffffffff82169050919050565b600061322082613239565b9050919050565b6000613232826131a6565b9050919050565b60006132448261324b565b9050919050565b6000613256826131c7565b9050919050565b82818337600083830152505050565b60005b8381101561328a57808201518184015260208101905061326f565b83811115613299576000848401525b50505050565b600060028204905060018216806132b757607f821691505b602082108114156132cb576132ca613409565b5b50919050565b6132da826134af565b810181811067ffffffffffffffff821117156132f9576132f8613467565b5b80604052505050565b600061330d826131e7565b91507fffffffffffffffffffffffffffffffffffffffffffffffffffffffffffffffff8214156133405761333f61337c565b5b600182019050919050565b6000613356826131e7565b9150613361836131e7565b925082613371576133706133ab565b5b828206905092915050565b7f4e487b7100000000000000000000000000000000000000000000000000000000600052601160045260246000fd5b7f4e487b7100000000000000000000000000000000000000000000000000000000600052601260045260246000fd5b7f4e487b7100000000000000000000000000000000000000000000000000000000600052602160045260246000fd5b7f4e487b7100000000000000000000000000000000000000000000000000000000600052602260045260246000fd5b7f4e487b7100000000000000000000000000000000000000000000000000000000600052603260045260246000fd5b7f4e487b7100000000000000000000000000000000000000000000000000000000600052604160045260246000fd5b600080fd5b600080fd5b600080fd5b600080fd5b600080fd5b6000601f19601f8301169050919050565b7f4552433732313a207472616e7366657220746f206e6f6e20455243373231526560008201527f63656976657220696d706c656d656e7465720000000000000000000000000000602082015250565b7f4f776e61626c653a206e6577206f776e657220697320746865207a65726f206160008201527f6464726573730000000000000000000000000000000000000000000000000000602082015250565b7f4552433732313a207472616e736665722066726f6d20696e636f72726563742060008201527f6f776e6572000000000000000000000000000000000000000000000000000000602082015250565b7f4552433732313a20746f6b656e20616c7265616479206d696e74656400000000600082015250565b7f4552433732313a207472616e7366657220746f20746865207a65726f2061646460008201527f7265737300000000000000000000000000000000000000000000000000000000602082015250565b7f4552433732313a20617070726f766520746f2063616c6c657200000000000000600082015250565b7f4552433732313a2061646472657373207a65726f206973206e6f74206120766160008201527f6c6964206f776e65720000000000000000000000000000000000000000000000602082015250565b7f45524337323155524953746f726167653a2055524920736574206f66206e6f6e60008201527f6578697374656e7420746f6b656e000000000000000000000000000000000000602082015250565b7f4552433732313a20617070726f76652063616c6c6572206973206e6f7420746f60008201527f6b656e206f776e6572206e6f7220617070726f76656420666f7220616c6c0000602082015250565b7f4552433732313a206d696e7420746f20746865207a65726f2061646472657373600082015250565b7f4f776e61626c653a2063616c6c6572206973206e6f7420746865206f776e6572600082015250565b7f4552433732313a20696e76616c696420746f6b656e2049440000000000000000600082015250565b7f4552433732313a20617070726f76616c20746f2063757272656e74206f776e6560008201527f7200000000000000000000000000000000000000000000000000000000000000602082015250565b50565b7f4552433732313a2063616c6c6572206973206e6f7420746f6b656e206f776e6560008201527f72206e6f7220617070726f766564000000000000000000000000000000000000602082015250565b60038110613868576138676133da565b5b50565b61387481613152565b811461387f57600080fd5b50565b61388b81613164565b811461389657600080fd5b50565b6138a28161317a565b81146138ad57600080fd5b50565b6138b9816131e7565b81146138c457600080fd5b5056fea2646970667358221220261a3ee2a10cf1af8cb72f35df2555e172da0b48c8239a030346529d7c8ba0a164736f6c63430008070033",
  "devdoc": {
    "kind": "dev",
    "methods": {
      "approve(address,uint256)": {
        "details": "See {IERC721-approve}."
      },
      "balanceOf(address)": {
        "details": "See {IERC721-balanceOf}."
      },
      "getApproved(uint256)": {
        "details": "See {IERC721-getApproved}."
      },
      "isApprovedForAll(address,address)": {
        "details": "See {IERC721-isApprovedForAll}."
      },
      "name()": {
        "details": "See {IERC721Metadata-name}."
      },
      "owner()": {
        "details": "Returns the address of the current owner."
      },
      "ownerOf(uint256)": {
        "details": "See {IERC721-ownerOf}."
      },
      "renounceOwnership()": {
        "details": "Leaves the contract without owner. It will not be possible to call `onlyOwner` functions anymore. Can only be called by the current owner. NOTE: Renouncing ownership will leave the contract without an owner, thereby removing any functionality that is only available to the owner."
      },
      "safeTransferFrom(address,address,uint256)": {
        "details": "See {IERC721-safeTransferFrom}."
      },
      "safeTransferFrom(address,address,uint256,bytes)": {
        "details": "See {IERC721-safeTransferFrom}."
      },
      "setApprovalForAll(address,bool)": {
        "details": "See {IERC721-setApprovalForAll}."
      },
      "supportsInterface(bytes4)": {
        "details": "See {IERC165-supportsInterface}."
      },
      "symbol()": {
        "details": "See {IERC721Metadata-symbol}."
      },
      "tokenURI(uint256)": {
        "details": "See {IERC721Metadata-tokenURI}."
      },
      "transferFrom(address,address,uint256)": {
        "details": "See {IERC721-transferFrom}."
      },
      "transferOwnership(address)": {
        "details": "Transfers ownership of the contract to a new account (`newOwner`). Can only be called by the current owner."
      }
    },
    "version": 1
  },
  "userdoc": {
    "kind": "user",
    "methods": {},
    "version": 1
  },
  "storageLayout": {
    "storage": [
      {
        "astId": 285,
        "contract": "contracts/RandomIpfs.sol:RandomIpfs",
        "label": "_name",
        "offset": 0,
        "slot": "0",
        "type": "t_string_storage"
      },
      {
        "astId": 287,
        "contract": "contracts/RandomIpfs.sol:RandomIpfs",
        "label": "_symbol",
        "offset": 0,
        "slot": "1",
        "type": "t_string_storage"
      },
      {
        "astId": 291,
        "contract": "contracts/RandomIpfs.sol:RandomIpfs",
        "label": "_owners",
        "offset": 0,
        "slot": "2",
        "type": "t_mapping(t_uint256,t_address)"
      },
      {
        "astId": 295,
        "contract": "contracts/RandomIpfs.sol:RandomIpfs",
        "label": "_balances",
        "offset": 0,
        "slot": "3",
        "type": "t_mapping(t_address,t_uint256)"
      },
      {
        "astId": 299,
        "contract": "contracts/RandomIpfs.sol:RandomIpfs",
        "label": "_tokenApprovals",
        "offset": 0,
        "slot": "4",
        "type": "t_mapping(t_uint256,t_address)"
      },
      {
        "astId": 305,
        "contract": "contracts/RandomIpfs.sol:RandomIpfs",
        "label": "_operatorApprovals",
        "offset": 0,
        "slot": "5",
        "type": "t_mapping(t_address,t_mapping(t_address,t_bool))"
      },
      {
        "astId": 1273,
        "contract": "contracts/RandomIpfs.sol:RandomIpfs",
        "label": "_tokenURIs",
        "offset": 0,
        "slot": "6",
        "type": "t_mapping(t_uint256,t_string_storage)"
      },
      {
        "astId": 154,
        "contract": "contracts/RandomIpfs.sol:RandomIpfs",
        "label": "_owner",
        "offset": 0,
        "slot": "7",
        "type": "t_address"
      },
      {
        "astId": 2030,
        "contract": "contracts/RandomIpfs.sol:RandomIpfs",
        "label": "RequestToAddress",
        "offset": 0,
        "slot": "8",
        "type": "t_mapping(t_uint256,t_address)"
      },
      {
        "astId": 2032,
        "contract": "contracts/RandomIpfs.sol:RandomIpfs",
        "label": "tokenId",
        "offset": 0,
        "slot": "9",
        "type": "t_uint256"
      },
      {
        "astId": 2036,
        "contract": "contracts/RandomIpfs.sol:RandomIpfs",
        "label": "i_dogUris",
        "offset": 0,
        "slot": "10",
        "type": "t_array(t_string_storage)3_storage"
      }
    ],
    "types": {
      "t_address": {
        "encoding": "inplace",
        "label": "address",
        "numberOfBytes": "20"
      },
      "t_array(t_string_storage)3_storage": {
        "base": "t_string_storage",
        "encoding": "inplace",
        "label": "string[3]",
        "numberOfBytes": "96"
      },
      "t_bool": {
        "encoding": "inplace",
        "label": "bool",
        "numberOfBytes": "1"
      },
      "t_mapping(t_address,t_bool)": {
        "encoding": "mapping",
        "key": "t_address",
        "label": "mapping(address => bool)",
        "numberOfBytes": "32",
        "value": "t_bool"
      },
      "t_mapping(t_address,t_mapping(t_address,t_bool))": {
        "encoding": "mapping",
        "key": "t_address",
        "label": "mapping(address => mapping(address => bool))",
        "numberOfBytes": "32",
        "value": "t_mapping(t_address,t_bool)"
      },
      "t_mapping(t_address,t_uint256)": {
        "encoding": "mapping",
        "key": "t_address",
        "label": "mapping(address => uint256)",
        "numberOfBytes": "32",
        "value": "t_uint256"
      },
      "t_mapping(t_uint256,t_address)": {
        "encoding": "mapping",
        "key": "t_uint256",
        "label": "mapping(uint256 => address)",
        "numberOfBytes": "32",
        "value": "t_address"
      },
      "t_mapping(t_uint256,t_string_storage)": {
        "encoding": "mapping",
        "key": "t_uint256",
        "label": "mapping(uint256 => string)",
        "numberOfBytes": "32",
        "value": "t_string_storage"
      },
      "t_string_storage": {
        "encoding": "bytes",
        "label": "string",
        "numberOfBytes": "32"
      },
      "t_uint256": {
        "encoding": "inplace",
        "label": "uint256",
        "numberOfBytes": "32"
      }
    }
  }
}