{
  "_format": "hh-sol-artifact-1",
  "contractName": "RandomIpfs",
  "sourceName": "contracts/RandomIpfs.sol",
  "abi": [
    {
      "inputs": [
        {
          "internalType": "address",
          "name": "vrfCoordinator",
          "type": "address"
        },
        {
          "internalType": "bytes32",
          "name": "keyHash",
          "type": "bytes32"
        },
        {
          "internalType": "uint64",
          "name": "subscriptionId",
          "type": "uint64"
        },
        {
          "internalType": "uint32",
          "name": "callbackGasLimit",
          "type": "uint32"
        },
        {
          "internalType": "string[3]",
          "name": "dogUris",
          "type": "string[3]"
        }
      ],
      "stateMutability": "nonpayable",
      "type": "constructor"
    },
    {
      "inputs": [
        {
          "internalType": "address",
          "name": "have",
          "type": "address"
        },
        {
          "internalType": "address",
          "name": "want",
          "type": "address"
        }
      ],
      "name": "OnlyCoordinatorCanFulfill",
      "type": "error"
    },
    {
      "inputs": [],
      "name": "RandomIpfs_moneyTransferFailed",
      "type": "error"
    },
    {
      "inputs": [],
      "name": "RandomIpfs_notEnoughEthSent",
      "type": "error"
    },
    {
      "inputs": [],
      "name": "RandomIpfs_rangeOutOfBounds",
      "type": "error"
    },
    {
      "anonymous": false,
      "inputs": [
        {
          "indexed": true,
          "internalType": "address",
          "name": "owner",
          "type": "address"
        },
        {
          "indexed": true,
          "internalType": "address",
          "name": "approved",
          "type": "address"
        },
        {
          "indexed": true,
          "internalType": "uint256",
          "name": "tokenId",
          "type": "uint256"
        }
      ],
      "name": "Approval",
      "type": "event"
    },
    {
      "anonymous": false,
      "inputs": [
        {
          "indexed": true,
          "internalType": "address",
          "name": "owner",
          "type": "address"
        },
        {
          "indexed": true,
          "internalType": "address",
          "name": "operator",
          "type": "address"
        },
        {
          "indexed": false,
          "internalType": "bool",
          "name": "approved",
          "type": "bool"
        }
      ],
      "name": "ApprovalForAll",
      "type": "event"
    },
    {
      "anonymous": false,
      "inputs": [
        {
          "indexed": true,
          "internalType": "address",
          "name": "previousOwner",
          "type": "address"
        },
        {
          "indexed": true,
          "internalType": "address",
          "name": "newOwner",
          "type": "address"
        }
      ],
      "name": "OwnershipTransferred",
      "type": "event"
    },
    {
      "anonymous": false,
      "inputs": [
        {
          "indexed": true,
          "internalType": "address",
          "name": "from",
          "type": "address"
        },
        {
          "indexed": true,
          "internalType": "address",
          "name": "to",
          "type": "address"
        },
        {
          "indexed": true,
          "internalType": "uint256",
          "name": "tokenId",
          "type": "uint256"
        }
      ],
      "name": "Transfer",
      "type": "event"
    },
    {
      "anonymous": false,
      "inputs": [
        {
          "indexed": false,
          "internalType": "enum RandomIpfs.Breed",
          "name": "dogBreed",
          "type": "uint8"
        },
        {
          "indexed": false,
          "internalType": "address",
          "name": "minter",
          "type": "address"
        }
      ],
      "name": "nftMinted",
      "type": "event"
    },
    {
      "anonymous": false,
      "inputs": [
        {
          "indexed": true,
          "internalType": "address",
          "name": "sender",
          "type": "address"
        },
        {
          "indexed": true,
          "internalType": "uint256",
          "name": "requestId",
          "type": "uint256"
        }
      ],
      "name": "nftRequested",
      "type": "event"
    },
    {
      "inputs": [
        {
          "internalType": "address",
          "name": "to",
          "type": "address"
        },
        {
          "internalType": "uint256",
          "name": "tokenId",
          "type": "uint256"
        }
      ],
      "name": "approve",
      "outputs": [],
      "stateMutability": "nonpayable",
      "type": "function"
    },
    {
      "inputs": [
        {
          "internalType": "address",
          "name": "owner",
          "type": "address"
        }
      ],
      "name": "balanceOf",
      "outputs": [
        {
          "internalType": "uint256",
          "name": "",
          "type": "uint256"
        }
      ],
      "stateMutability": "view",
      "type": "function"
    },
    {
      "inputs": [
        {
          "internalType": "uint256",
          "name": "tokenId",
          "type": "uint256"
        }
      ],
      "name": "getApproved",
      "outputs": [
        {
          "internalType": "address",
          "name": "",
          "type": "address"
        }
      ],
      "stateMutability": "view",
      "type": "function"
    },
    {
      "inputs": [],
      "name": "getChanceArray",
      "outputs": [
        {
          "internalType": "uint256[3]",
          "name": "",
          "type": "uint256[3]"
        }
      ],
      "stateMutability": "pure",
      "type": "function"
    },
    {
      "inputs": [],
      "name": "getFee",
      "outputs": [
        {
          "internalType": "uint256",
          "name": "",
          "type": "uint256"
        }
      ],
      "stateMutability": "pure",
      "type": "function"
    },
    {
      "inputs": [
        {
          "internalType": "uint256",
          "name": "moddedNum",
          "type": "uint256"
        }
      ],
      "name": "getPupType",
      "outputs": [
        {
          "internalType": "enum RandomIpfs.Breed",
          "name": "",
          "type": "uint8"
        }
      ],
      "stateMutability": "pure",
      "type": "function"
    },
    {
      "inputs": [],
      "name": "getSubscriptionId",
      "outputs": [
        {
          "internalType": "uint256",
          "name": "",
          "type": "uint256"
        }
      ],
      "stateMutability": "view",
      "type": "function"
    },
    {
      "inputs": [],
      "name": "getTokenId",
      "outputs": [
        {
          "internalType": "uint256",
          "name": "",
          "type": "uint256"
        }
      ],
      "stateMutability": "view",
      "type": "function"
    },
    {
      "inputs": [],
      "name": "getVftCoordinator",
      "outputs": [
        {
          "internalType": "contract VRFCoordinatorV2Interface",
          "name": "",
          "type": "address"
        }
      ],
      "stateMutability": "view",
      "type": "function"
    },
    {
      "inputs": [
        {
          "internalType": "address",
          "name": "owner",
          "type": "address"
        },
        {
          "internalType": "address",
          "name": "operator",
          "type": "address"
        }
      ],
      "name": "isApprovedForAll",
      "outputs": [
        {
          "internalType": "bool",
          "name": "",
          "type": "bool"
        }
      ],
      "stateMutability": "view",
      "type": "function"
    },
    {
      "inputs": [],
      "name": "name",
      "outputs": [
        {
          "internalType": "string",
          "name": "",
          "type": "string"
        }
      ],
      "stateMutability": "view",
      "type": "function"
    },
    {
      "inputs": [],
      "name": "owner",
      "outputs": [
        {
          "internalType": "address",
          "name": "",
          "type": "address"
        }
      ],
      "stateMutability": "view",
      "type": "function"
    },
    {
      "inputs": [
        {
          "internalType": "uint256",
          "name": "tokenId",
          "type": "uint256"
        }
      ],
      "name": "ownerOf",
      "outputs": [
        {
          "internalType": "address",
          "name": "",
          "type": "address"
        }
      ],
      "stateMutability": "view",
      "type": "function"
    },
    {
      "inputs": [
        {
          "internalType": "uint256",
          "name": "requestId",
          "type": "uint256"
        },
        {
          "internalType": "uint256[]",
          "name": "randomWords",
          "type": "uint256[]"
        }
      ],
      "name": "rawFulfillRandomWords",
      "outputs": [],
      "stateMutability": "nonpayable",
      "type": "function"
    },
    {
      "inputs": [],
      "name": "renounceOwnership",
      "outputs": [],
      "stateMutability": "nonpayable",
      "type": "function"
    },
    {
      "inputs": [],
      "name": "requestNft",
      "outputs": [
        {
          "internalType": "uint256",
          "name": "",
          "type": "uint256"
        }
      ],
      "stateMutability": "payable",
      "type": "function"
    },
    {
      "inputs": [
        {
          "internalType": "address",
          "name": "from",
          "type": "address"
        },
        {
          "internalType": "address",
          "name": "to",
          "type": "address"
        },
        {
          "internalType": "uint256",
          "name": "tokenId",
          "type": "uint256"
        }
      ],
      "name": "safeTransferFrom",
      "outputs": [],
      "stateMutability": "nonpayable",
      "type": "function"
    },
    {
      "inputs": [
        {
          "internalType": "address",
          "name": "from",
          "type": "address"
        },
        {
          "internalType": "address",
          "name": "to",
          "type": "address"
        },
        {
          "internalType": "uint256",
          "name": "tokenId",
          "type": "uint256"
        },
        {
          "internalType": "bytes",
          "name": "data",
          "type": "bytes"
        }
      ],
      "name": "safeTransferFrom",
      "outputs": [],
      "stateMutability": "nonpayable",
      "type": "function"
    },
    {
      "inputs": [
        {
          "internalType": "address",
          "name": "operator",
          "type": "address"
        },
        {
          "internalType": "bool",
          "name": "approved",
          "type": "bool"
        }
      ],
      "name": "setApprovalForAll",
      "outputs": [],
      "stateMutability": "nonpayable",
      "type": "function"
    },
    {
      "inputs": [
        {
          "internalType": "bytes4",
          "name": "interfaceId",
          "type": "bytes4"
        }
      ],
      "name": "supportsInterface",
      "outputs": [
        {
          "internalType": "bool",
          "name": "",
          "type": "bool"
        }
      ],
      "stateMutability": "view",
      "type": "function"
    },
    {
      "inputs": [],
      "name": "symbol",
      "outputs": [
        {
          "internalType": "string",
          "name": "",
          "type": "string"
        }
      ],
      "stateMutability": "view",
      "type": "function"
    },
    {
      "inputs": [
        {
          "internalType": "uint256",
          "name": "tokenId",
          "type": "uint256"
        }
      ],
      "name": "tokenURI",
      "outputs": [
        {
          "internalType": "string",
          "name": "",
          "type": "string"
        }
      ],
      "stateMutability": "view",
      "type": "function"
    },
    {
      "inputs": [
        {
          "internalType": "address",
          "name": "from",
          "type": "address"
        },
        {
          "internalType": "address",
          "name": "to",
          "type": "address"
        },
        {
          "internalType": "uint256",
          "name": "tokenId",
          "type": "uint256"
        }
      ],
      "name": "transferFrom",
      "outputs": [],
      "stateMutability": "nonpayable",
      "type": "function"
    },
    {
      "inputs": [
        {
          "internalType": "address",
          "name": "newOwner",
          "type": "address"
        }
      ],
      "name": "transferOwnership",
      "outputs": [],
      "stateMutability": "nonpayable",
      "type": "function"
    },
    {
      "inputs": [],
      "name": "withdraw",
      "outputs": [],
      "stateMutability": "nonpayable",
      "type": "function"
    }
  ],
  "bytecode": "0x610140604052662386f26fc10000610120908152503480156200002157600080fd5b5060405162004264380380620042648339818101604052810190620000479190620007d0565b6040518060400160405280600981526020017f72616e646f6d4e465400000000000000000000000000000000000000000000008152506040518060400160405280600181526020017f5200000000000000000000000000000000000000000000000000000000000000815250868073ffffffffffffffffffffffffffffffffffffffff1660808173ffffffffffffffffffffffffffffffffffffffff1660601b8152505050816000908051906020019062000104929190620002ab565b5080600190805190602001906200011d929190620002ab565b5050506200014062000134620001dd60201b60201c565b620001e560201b60201c565b8473ffffffffffffffffffffffffffffffffffffffff1660a08173ffffffffffffffffffffffffffffffffffffffff1660601b815250508360c081815250508267ffffffffffffffff1660e08167ffffffffffffffff1660c01b815250508163ffffffff166101008163ffffffff1660e01b8152505080600a906003620001c99291906200033c565b5060006009819055505050505050620008dc565b600033905090565b6000600760009054906101000a900473ffffffffffffffffffffffffffffffffffffffff16905081600760006101000a81548173ffffffffffffffffffffffffffffffffffffffff021916908373ffffffffffffffffffffffffffffffffffffffff1602179055508173ffffffffffffffffffffffffffffffffffffffff168173ffffffffffffffffffffffffffffffffffffffff167f8be0079c531659141344cd1fd0a4f28419497f9722a3daafe3b4186f6b6457e060405160405180910390a35050565b828054620002b990620008a6565b90600052602060002090601f016020900481019282620002dd576000855562000329565b82601f10620002f857805160ff191683800117855562000329565b8280016001018555821562000329579182015b82811115620003285782518255916020019190600101906200030b565b5b50905062000338919062000396565b5090565b826003810192821562000383579160200282015b828111156200038257825182908051906020019062000371929190620002ab565b509160200191906001019062000350565b5b509050620003929190620003b5565b5090565b5b80821115620003b157600081600090555060010162000397565b5090565b5b80821115620003d95760008181620003cf9190620003dd565b50600101620003b6565b5090565b508054620003eb90620008a6565b6000825580601f10620003ff575062000420565b601f0160209004906000526020600020908101906200041f919062000396565b5b50565b6000604051905090565b600080fd5b600080fd5b600073ffffffffffffffffffffffffffffffffffffffff82169050919050565b6000620004648262000437565b9050919050565b620004768162000457565b81146200048257600080fd5b50565b60008151905062000496816200046b565b92915050565b6000819050919050565b620004b1816200049c565b8114620004bd57600080fd5b50565b600081519050620004d181620004a6565b92915050565b600067ffffffffffffffff82169050919050565b620004f681620004d7565b81146200050257600080fd5b50565b6000815190506200051681620004eb565b92915050565b600063ffffffff82169050919050565b62000537816200051c565b81146200054357600080fd5b50565b60008151905062000557816200052c565b92915050565b600080fd5b6000601f19601f8301169050919050565b7f4e487b7100000000000000000000000000000000000000000000000000000000600052604160045260246000fd5b620005ad8262000562565b810181811067ffffffffffffffff82111715620005cf57620005ce62000573565b5b80604052505050565b6000620005e462000423565b9050620005f28282620005a2565b919050565b600067ffffffffffffffff82111562000615576200061462000573565b5b602082029050919050565b600080fd5b600080fd5b600067ffffffffffffffff82111562000648576200064762000573565b5b620006538262000562565b9050602081019050919050565b60005b838110156200068057808201518184015260208101905062000663565b8381111562000690576000848401525b50505050565b6000620006ad620006a7846200062a565b620005d8565b905082815260208101848484011115620006cc57620006cb62000625565b5b620006d984828562000660565b509392505050565b600082601f830112620006f957620006f86200055d565b5b81516200070b84826020860162000696565b91505092915050565b60006200072b6200072584620005f7565b620005d8565b9050806020840283018581111562000748576200074762000620565b5b835b818110156200079657805167ffffffffffffffff8111156200077157620007706200055d565b5b808601620007808982620006e1565b855260208501945050506020810190506200074a565b5050509392505050565b600082601f830112620007b857620007b76200055d565b5b6003620007c784828562000714565b91505092915050565b600080600080600060a08688031215620007ef57620007ee6200042d565b5b6000620007ff8882890162000485565b95505060206200081288828901620004c0565b9450506040620008258882890162000505565b9350506060620008388882890162000546565b925050608086015167ffffffffffffffff8111156200085c576200085b62000432565b5b6200086a88828901620007a0565b9150509295509295909350565b7f4e487b7100000000000000000000000000000000000000000000000000000000600052602260045260246000fd5b60006002820490506001821680620008bf57607f821691505b60208210811415620008d657620008d562000877565b5b50919050565b60805160601c60a05160601c60c05160e05160c01c6101005160e01c610120516139106200095460003960008181610e0a015261119101526000610ee6015260008181610ec301526111b901526000610ea2015260008181610e6601526113030152600081816108b7015261090b01526139106000f3fe6080604052600436106101665760003560e01c806370a08231116100d1578063b88d4fde1161008a578063de3d9fb711610064578063de3d9fb71461051d578063e985e9c514610548578063f2fde38b14610585578063fe2f73fe146105ae57610166565b8063b88d4fde1461048c578063c87b56dd146104b5578063ced72f87146104f257610166565b806370a082311461039b578063715018a6146103d85780638da5cb5b146103ef57806395d89b411461041a578063a22cb46514610445578063aa1524911461046e57610166565b806323b872dd1161012357806323b872dd1461028d5780633ccfd60b146102b657806342842e0e146102cd5780635a508656146102f65780635dacf5f4146103335780636352211e1461035e57610166565b8063010a38f51461016b57806301ffc9a71461019657806306fdde03146101d3578063081812fc146101fe578063095ea7b31461023b5780631fe543e314610264575b600080fd5b34801561017757600080fd5b506101806105d9565b60405161018d91906123f1565b60405180910390f35b3480156101a257600080fd5b506101bd60048036038101906101b89190612478565b6105e3565b6040516101ca91906124c0565b60405180910390f35b3480156101df57600080fd5b506101e86106c5565b6040516101f59190612574565b60405180910390f35b34801561020a57600080fd5b50610225600480360381019061022091906125c2565b610757565b6040516102329190612630565b60405180910390f35b34801561024757600080fd5b50610262600480360381019061025d9190612677565b61079d565b005b34801561027057600080fd5b5061028b600480360381019061028691906127ff565b6108b5565b005b34801561029957600080fd5b506102b460048036038101906102af919061285b565b610975565b005b3480156102c257600080fd5b506102cb6109d5565b005b3480156102d957600080fd5b506102f460048036038101906102ef919061285b565b610a89565b005b34801561030257600080fd5b5061031d600480360381019061031891906125c2565b610aa9565b60405161032a9190612925565b60405180910390f35b34801561033f57600080fd5b50610348610b8b565b60405161035591906129eb565b60405180910390f35b34801561036a57600080fd5b50610385600480360381019061038091906125c2565b610bb6565b6040516103929190612630565b60405180910390f35b3480156103a757600080fd5b506103c260048036038101906103bd9190612a06565b610c68565b6040516103cf91906123f1565b60405180910390f35b3480156103e457600080fd5b506103ed610d20565b005b3480156103fb57600080fd5b50610404610d34565b6040516104119190612630565b60405180910390f35b34801561042657600080fd5b5061042f610d5e565b60405161043c9190612574565b60405180910390f35b34801561045157600080fd5b5061046c60048036038101906104679190612a5f565b610df0565b005b610476610e06565b60405161048391906123f1565b60405180910390f35b34801561049857600080fd5b506104b360048036038101906104ae9190612b54565b611018565b005b3480156104c157600080fd5b506104dc60048036038101906104d791906125c2565b61107a565b6040516104e99190612574565b60405180910390f35b3480156104fe57600080fd5b5061050761118d565b60405161051491906123f1565b60405180910390f35b34801561052957600080fd5b506105326111b5565b60405161053f91906123f1565b60405180910390f35b34801561055457600080fd5b5061056f600480360381019061056a9190612bd7565b6111e7565b60405161057c91906124c0565b60405180910390f35b34801561059157600080fd5b506105ac60048036038101906105a79190612a06565b61127b565b005b3480156105ba57600080fd5b506105c36112ff565b6040516105d09190612c76565b60405180910390f35b6000600954905090565b60007f80ac58cd000000000000000000000000000000000000000000000000000000007bffffffffffffffffffffffffffffffffffffffffffffffffffffffff1916827bffffffffffffffffffffffffffffffffffffffffffffffffffffffff191614806106ae57507f5b5e139f000000000000000000000000000000000000000000000000000000007bffffffffffffffffffffffffffffffffffffffffffffffffffffffff1916827bffffffffffffffffffffffffffffffffffffffffffffffffffffffff1916145b806106be57506106bd82611327565b5b9050919050565b6060600080546106d490612cc0565b80601f016020809104026020016040519081016040528092919081815260200182805461070090612cc0565b801561074d5780601f106107225761010080835404028352916020019161074d565b820191906000526020600020905b81548152906001019060200180831161073057829003601f168201915b5050505050905090565b600061076282611391565b6004600083815260200190815260200160002060009054906101000a900473ffffffffffffffffffffffffffffffffffffffff169050919050565b60006107a882610bb6565b90508073ffffffffffffffffffffffffffffffffffffffff168373ffffffffffffffffffffffffffffffffffffffff161415610819576040517f08c379a000000000000000000000000000000000000000000000000000000000815260040161081090612d64565b60405180910390fd5b8073ffffffffffffffffffffffffffffffffffffffff166108386113dc565b73ffffffffffffffffffffffffffffffffffffffff1614806108675750610866816108616113dc565b6111e7565b5b6108a6576040517f08c379a000000000000000000000000000000000000000000000000000000000815260040161089d90612df6565b60405180910390fd5b6108b083836113e4565b505050565b7f000000000000000000000000000000000000000000000000000000000000000073ffffffffffffffffffffffffffffffffffffffff163373ffffffffffffffffffffffffffffffffffffffff161461096757337f00000000000000000000000000000000000000000000000000000000000000006040517f1cf993f400000000000000000000000000000000000000000000000000000000815260040161095e929190612e16565b60405180910390fd5b610971828261149d565b5050565b6109866109806113dc565b82611633565b6109c5576040517f08c379a00000000000000000000000000000000000000000000000000000000081526004016109bc90612eb1565b60405180910390fd5b6109d08383836116c8565b505050565b6109dd61192f565b600047905060003373ffffffffffffffffffffffffffffffffffffffff1682604051610a0890612f02565b60006040518083038185875af1925050503d8060008114610a45576040519150601f19603f3d011682016040523d82523d6000602084013e610a4a565b606091505b5050905080610a85576040517f333a3c9000000000000000000000000000000000000000000000000000000000815260040160405180910390fd5b5050565b610aa483838360405180602001604052806000815250611018565b505050565b600080600090506000610aba610b8b565b905060005b6003811015610b5357828510158015610af95750818160038110610ae657610ae5612f17565b5b602002015183610af69190612f75565b85105b15610b1b57806002811115610b1157610b106128ae565b5b9350505050610b86565b818160038110610b2e57610b2d612f17565b5b602002015183610b3e9190612f75565b92508080610b4b90612fcb565b915050610abf565b506040517fe2d79d3800000000000000000000000000000000000000000000000000000000815260040160405180910390fd5b919050565b610b93612313565b6040518060600160405280600a8152602001601e81526020016064815250905090565b6000806002600084815260200190815260200160002060009054906101000a900473ffffffffffffffffffffffffffffffffffffffff169050600073ffffffffffffffffffffffffffffffffffffffff168173ffffffffffffffffffffffffffffffffffffffff161415610c5f576040517f08c379a0000000000000000000000000000000000000000000000000000000008152600401610c5690613060565b60405180910390fd5b80915050919050565b60008073ffffffffffffffffffffffffffffffffffffffff168273ffffffffffffffffffffffffffffffffffffffff161415610cd9576040517f08c379a0000000000000000000000000000000000000000000000000000000008152600401610cd0906130f2565b60405180910390fd5b600360008373ffffffffffffffffffffffffffffffffffffffff1673ffffffffffffffffffffffffffffffffffffffff168152602001908152602001600020549050919050565b610d2861192f565b610d3260006119ad565b565b6000600760009054906101000a900473ffffffffffffffffffffffffffffffffffffffff16905090565b606060018054610d6d90612cc0565b80601f0160208091040260200160405190810160405280929190818152602001828054610d9990612cc0565b8015610de65780601f10610dbb57610100808354040283529160200191610de6565b820191906000526020600020905b815481529060010190602001808311610dc957829003601f168201915b5050505050905090565b610e02610dfb6113dc565b8383611a73565b5050565b60007f0000000000000000000000000000000000000000000000000000000000000000341015610e62576040517fd19c1e5b00000000000000000000000000000000000000000000000000000000815260040160405180910390fd5b60007f000000000000000000000000000000000000000000000000000000000000000073ffffffffffffffffffffffffffffffffffffffff16635d3b1d307f00000000000000000000000000000000000000000000000000000000000000007f000000000000000000000000000000000000000000000000000000000000000060037f000000000000000000000000000000000000000000000000000000000000000060026040518663ffffffff1660e01b8152600401610f2795949392919061318a565b602060405180830381600087803b158015610f4157600080fd5b505af1158015610f55573d6000803e3d6000fd5b505050506040513d601f19601f82011682018060405250810190610f7991906131f2565b9050336008600083815260200190815260200160002060006101000a81548173ffffffffffffffffffffffffffffffffffffffff021916908373ffffffffffffffffffffffffffffffffffffffff160217905550803373ffffffffffffffffffffffffffffffffffffffff167f586cc220b978bf82e8f45ae256270f535c54435351f4d370ed3e65d744680a2d60405160405180910390a38091505090565b6110296110236113dc565b83611633565b611068576040517f08c379a000000000000000000000000000000000000000000000000000000000815260040161105f90612eb1565b60405180910390fd5b61107484848484611be0565b50505050565b606061108582611391565b60006006600084815260200190815260200160002080546110a590612cc0565b80601f01602080910402602001604051908101604052809291908181526020018280546110d190612cc0565b801561111e5780601f106110f35761010080835404028352916020019161111e565b820191906000526020600020905b81548152906001019060200180831161110157829003601f168201915b50505050509050600061112f611c3c565b9050600081511415611145578192505050611188565b60008251111561117a57808260405160200161116292919061325b565b60405160208183030381529060405292505050611188565b61118384611c53565b925050505b919050565b60007f0000000000000000000000000000000000000000000000000000000000000000905090565b60007f000000000000000000000000000000000000000000000000000000000000000067ffffffffffffffff16905090565b6000600560008473ffffffffffffffffffffffffffffffffffffffff1673ffffffffffffffffffffffffffffffffffffffff16815260200190815260200160002060008373ffffffffffffffffffffffffffffffffffffffff1673ffffffffffffffffffffffffffffffffffffffff16815260200190815260200160002060009054906101000a900460ff16905092915050565b61128361192f565b600073ffffffffffffffffffffffffffffffffffffffff168173ffffffffffffffffffffffffffffffffffffffff1614156112f3576040517f08c379a00000000000000000000000000000000000000000000000000000000081526004016112ea906132f1565b60405180910390fd5b6112fc816119ad565b50565b60007f0000000000000000000000000000000000000000000000000000000000000000905090565b60007f01ffc9a7000000000000000000000000000000000000000000000000000000007bffffffffffffffffffffffffffffffffffffffffffffffffffffffff1916827bffffffffffffffffffffffffffffffffffffffffffffffffffffffff1916149050919050565b61139a81611cbb565b6113d9576040517f08c379a00000000000000000000000000000000000000000000000000000000081526004016113d090613060565b60405180910390fd5b50565b600033905090565b816004600083815260200190815260200160002060006101000a81548173ffffffffffffffffffffffffffffffffffffffff021916908373ffffffffffffffffffffffffffffffffffffffff160217905550808273ffffffffffffffffffffffffffffffffffffffff1661145783610bb6565b73ffffffffffffffffffffffffffffffffffffffff167f8c5be1e5ebec7d5bd14f71427d1e84f3dd0314c0f7b2291e5b200ac8c7c3b92560405160405180910390a45050565b60006008600084815260200190815260200160002060009054906101000a900473ffffffffffffffffffffffffffffffffffffffff1690506000826000815181106114eb576114ea612f17565b5b6020026020010151905060006064826115049190613340565b9050600061151182610aa9565b905061151f84600954611d27565b6115da600954600a83600281111561153a576115396128ae565b5b6003811061154b5761154a612f17565b5b01805461155790612cc0565b80601f016020809104026020016040519081016040528092919081815260200182805461158390612cc0565b80156115d05780601f106115a5576101008083540402835291602001916115d0565b820191906000526020600020905b8154815290600101906020018083116115b357829003601f168201915b5050505050611d45565b600960008154809291906115ed90612fcb565b91905055507f1aa35c020b397b1bb7bb41edc11d97e964a4fc744a734afce0d451b3bab97cc68185604051611623929190613371565b60405180910390a1505050505050565b60008061163f83610bb6565b90508073ffffffffffffffffffffffffffffffffffffffff168473ffffffffffffffffffffffffffffffffffffffff161480611681575061168081856111e7565b5b806116bf57508373ffffffffffffffffffffffffffffffffffffffff166116a784610757565b73ffffffffffffffffffffffffffffffffffffffff16145b91505092915050565b8273ffffffffffffffffffffffffffffffffffffffff166116e882610bb6565b73ffffffffffffffffffffffffffffffffffffffff161461173e576040517f08c379a00000000000000000000000000000000000000000000000000000000081526004016117359061340c565b60405180910390fd5b600073ffffffffffffffffffffffffffffffffffffffff168273ffffffffffffffffffffffffffffffffffffffff1614156117ae576040517f08c379a00000000000000000000000000000000000000000000000000000000081526004016117a59061349e565b60405180910390fd5b6117b9838383611db9565b6117c46000826113e4565b6001600360008573ffffffffffffffffffffffffffffffffffffffff1673ffffffffffffffffffffffffffffffffffffffff168152602001908152602001600020600082825461181491906134be565b925050819055506001600360008473ffffffffffffffffffffffffffffffffffffffff1673ffffffffffffffffffffffffffffffffffffffff168152602001908152602001600020600082825461186b9190612f75565b92505081905550816002600083815260200190815260200160002060006101000a81548173ffffffffffffffffffffffffffffffffffffffff021916908373ffffffffffffffffffffffffffffffffffffffff160217905550808273ffffffffffffffffffffffffffffffffffffffff168473ffffffffffffffffffffffffffffffffffffffff167fddf252ad1be2c89b69c2b068fc378daa952ba7f163c4a11628f55a4df523b3ef60405160405180910390a461192a838383611dbe565b505050565b6119376113dc565b73ffffffffffffffffffffffffffffffffffffffff16611955610d34565b73ffffffffffffffffffffffffffffffffffffffff16146119ab576040517f08c379a00000000000000000000000000000000000000000000000000000000081526004016119a29061353e565b60405180910390fd5b565b6000600760009054906101000a900473ffffffffffffffffffffffffffffffffffffffff16905081600760006101000a81548173ffffffffffffffffffffffffffffffffffffffff021916908373ffffffffffffffffffffffffffffffffffffffff1602179055508173ffffffffffffffffffffffffffffffffffffffff168173ffffffffffffffffffffffffffffffffffffffff167f8be0079c531659141344cd1fd0a4f28419497f9722a3daafe3b4186f6b6457e060405160405180910390a35050565b8173ffffffffffffffffffffffffffffffffffffffff168373ffffffffffffffffffffffffffffffffffffffff161415611ae2576040517f08c379a0000000000000000000000000000000000000000000000000000000008152600401611ad9906135aa565b60405180910390fd5b80600560008573ffffffffffffffffffffffffffffffffffffffff1673ffffffffffffffffffffffffffffffffffffffff16815260200190815260200160002060008473ffffffffffffffffffffffffffffffffffffffff1673ffffffffffffffffffffffffffffffffffffffff16815260200190815260200160002060006101000a81548160ff0219169083151502179055508173ffffffffffffffffffffffffffffffffffffffff168373ffffffffffffffffffffffffffffffffffffffff167f17307eab39ab6107e8899845ad3d59bd9653f200f220920489ca2b5937696c3183604051611bd391906124c0565b60405180910390a3505050565b611beb8484846116c8565b611bf784848484611dc3565b611c36576040517f08c379a0000000000000000000000000000000000000000000000000000000008152600401611c2d9061363c565b60405180910390fd5b50505050565b606060405180602001604052806000815250905090565b6060611c5e82611391565b6000611c68611c3c565b90506000815111611c885760405180602001604052806000815250611cb3565b80611c9284611f5a565b604051602001611ca392919061325b565b6040516020818303038152906040525b915050919050565b60008073ffffffffffffffffffffffffffffffffffffffff166002600084815260200190815260200160002060009054906101000a900473ffffffffffffffffffffffffffffffffffffffff1673ffffffffffffffffffffffffffffffffffffffff1614159050919050565b611d418282604051806020016040528060008152506120bb565b5050565b611d4e82611cbb565b611d8d576040517f08c379a0000000000000000000000000000000000000000000000000000000008152600401611d84906136ce565b60405180910390fd5b80600660008481526020019081526020016000209080519060200190611db4929190612335565b505050565b505050565b505050565b6000611de48473ffffffffffffffffffffffffffffffffffffffff16612116565b15611f4d578373ffffffffffffffffffffffffffffffffffffffff1663150b7a02611e0d6113dc565b8786866040518563ffffffff1660e01b8152600401611e2f9493929190613743565b602060405180830381600087803b158015611e4957600080fd5b505af1925050508015611e7a57506040513d601f19601f82011682018060405250810190611e7791906137a4565b60015b611efd573d8060008114611eaa576040519150601f19603f3d011682016040523d82523d6000602084013e611eaf565b606091505b50600081511415611ef5576040517f08c379a0000000000000000000000000000000000000000000000000000000008152600401611eec9061363c565b60405180910390fd5b805181602001fd5b63150b7a0260e01b7bffffffffffffffffffffffffffffffffffffffffffffffffffffffff1916817bffffffffffffffffffffffffffffffffffffffffffffffffffffffff191614915050611f52565b600190505b949350505050565b60606000821415611fa2576040518060400160405280600181526020017f300000000000000000000000000000000000000000000000000000000000000081525090506120b6565b600082905060005b60008214611fd4578080611fbd90612fcb565b915050600a82611fcd91906137d1565b9150611faa565b60008167ffffffffffffffff811115611ff057611fef6126bc565b5b6040519080825280601f01601f1916602001820160405280156120225781602001600182028036833780820191505090505b5090505b600085146120af5760018261203b91906134be565b9150600a8561204a9190613340565b60306120569190612f75565b60f81b81838151811061206c5761206b612f17565b5b60200101907effffffffffffffffffffffffffffffffffffffffffffffffffffffffffffff1916908160001a905350600a856120a891906137d1565b9450612026565b8093505050505b919050565b6120c58383612139565b6120d26000848484611dc3565b612111576040517f08c379a00000000000000000000000000000000000000000000000000000000081526004016121089061363c565b60405180910390fd5b505050565b6000808273ffffffffffffffffffffffffffffffffffffffff163b119050919050565b600073ffffffffffffffffffffffffffffffffffffffff168273ffffffffffffffffffffffffffffffffffffffff1614156121a9576040517f08c379a00000000000000000000000000000000000000000000000000000000081526004016121a09061384e565b60405180910390fd5b6121b281611cbb565b156121f2576040517f08c379a00000000000000000000000000000000000000000000000000000000081526004016121e9906138ba565b60405180910390fd5b6121fe60008383611db9565b6001600360008473ffffffffffffffffffffffffffffffffffffffff1673ffffffffffffffffffffffffffffffffffffffff168152602001908152602001600020600082825461224e9190612f75565b92505081905550816002600083815260200190815260200160002060006101000a81548173ffffffffffffffffffffffffffffffffffffffff021916908373ffffffffffffffffffffffffffffffffffffffff160217905550808273ffffffffffffffffffffffffffffffffffffffff16600073ffffffffffffffffffffffffffffffffffffffff167fddf252ad1be2c89b69c2b068fc378daa952ba7f163c4a11628f55a4df523b3ef60405160405180910390a461230f60008383611dbe565b5050565b6040518060600160405280600390602082028036833780820191505090505090565b82805461234190612cc0565b90600052602060002090601f01602090048101928261236357600085556123aa565b82601f1061237c57805160ff19168380011785556123aa565b828001600101855582156123aa579182015b828111156123a957825182559160200191906001019061238e565b5b5090506123b791906123bb565b5090565b5b808211156123d45760008160009055506001016123bc565b5090565b6000819050919050565b6123eb816123d8565b82525050565b600060208201905061240660008301846123e2565b92915050565b6000604051905090565b600080fd5b600080fd5b60007fffffffff0000000000000000000000000000000000000000000000000000000082169050919050565b61245581612420565b811461246057600080fd5b50565b6000813590506124728161244c565b92915050565b60006020828403121561248e5761248d612416565b5b600061249c84828501612463565b91505092915050565b60008115159050919050565b6124ba816124a5565b82525050565b60006020820190506124d560008301846124b1565b92915050565b600081519050919050565b600082825260208201905092915050565b60005b838110156125155780820151818401526020810190506124fa565b83811115612524576000848401525b50505050565b6000601f19601f8301169050919050565b6000612546826124db565b61255081856124e6565b93506125608185602086016124f7565b6125698161252a565b840191505092915050565b6000602082019050818103600083015261258e818461253b565b905092915050565b61259f816123d8565b81146125aa57600080fd5b50565b6000813590506125bc81612596565b92915050565b6000602082840312156125d8576125d7612416565b5b60006125e6848285016125ad565b91505092915050565b600073ffffffffffffffffffffffffffffffffffffffff82169050919050565b600061261a826125ef565b9050919050565b61262a8161260f565b82525050565b60006020820190506126456000830184612621565b92915050565b6126548161260f565b811461265f57600080fd5b50565b6000813590506126718161264b565b92915050565b6000806040838503121561268e5761268d612416565b5b600061269c85828601612662565b92505060206126ad858286016125ad565b9150509250929050565b600080fd5b7f4e487b7100000000000000000000000000000000000000000000000000000000600052604160045260246000fd5b6126f48261252a565b810181811067ffffffffffffffff82111715612713576127126126bc565b5b80604052505050565b600061272661240c565b905061273282826126eb565b919050565b600067ffffffffffffffff821115612752576127516126bc565b5b602082029050602081019050919050565b600080fd5b600061277b61277684612737565b61271c565b9050808382526020820190506020840283018581111561279e5761279d612763565b5b835b818110156127c757806127b388826125ad565b8452602084019350506020810190506127a0565b5050509392505050565b600082601f8301126127e6576127e56126b7565b5b81356127f6848260208601612768565b91505092915050565b6000806040838503121561281657612815612416565b5b6000612824858286016125ad565b925050602083013567ffffffffffffffff8111156128455761284461241b565b5b612851858286016127d1565b9150509250929050565b60008060006060848603121561287457612873612416565b5b600061288286828701612662565b935050602061289386828701612662565b92505060406128a4868287016125ad565b9150509250925092565b7f4e487b7100000000000000000000000000000000000000000000000000000000600052602160045260246000fd5b600381106128ee576128ed6128ae565b5b50565b60008190506128ff826128dd565b919050565b600061290f826128f1565b9050919050565b61291f81612904565b82525050565b600060208201905061293a6000830184612916565b92915050565b600060039050919050565b600081905092915050565b6000819050919050565b612969816123d8565b82525050565b600061297b8383612960565b60208301905092915050565b6000602082019050919050565b61299d81612940565b6129a7818461294b565b92506129b282612956565b8060005b838110156129e35781516129ca878261296f565b96506129d583612987565b9250506001810190506129b6565b505050505050565b6000606082019050612a006000830184612994565b92915050565b600060208284031215612a1c57612a1b612416565b5b6000612a2a84828501612662565b91505092915050565b612a3c816124a5565b8114612a4757600080fd5b50565b600081359050612a5981612a33565b92915050565b60008060408385031215612a7657612a75612416565b5b6000612a8485828601612662565b9250506020612a9585828601612a4a565b9150509250929050565b600080fd5b600067ffffffffffffffff821115612abf57612abe6126bc565b5b612ac88261252a565b9050602081019050919050565b82818337600083830152505050565b6000612af7612af284612aa4565b61271c565b905082815260208101848484011115612b1357612b12612a9f565b5b612b1e848285612ad5565b509392505050565b600082601f830112612b3b57612b3a6126b7565b5b8135612b4b848260208601612ae4565b91505092915050565b60008060008060808587031215612b6e57612b6d612416565b5b6000612b7c87828801612662565b9450506020612b8d87828801612662565b9350506040612b9e878288016125ad565b925050606085013567ffffffffffffffff811115612bbf57612bbe61241b565b5b612bcb87828801612b26565b91505092959194509250565b60008060408385031215612bee57612bed612416565b5b6000612bfc85828601612662565b9250506020612c0d85828601612662565b9150509250929050565b6000819050919050565b6000612c3c612c37612c32846125ef565b612c17565b6125ef565b9050919050565b6000612c4e82612c21565b9050919050565b6000612c6082612c43565b9050919050565b612c7081612c55565b82525050565b6000602082019050612c8b6000830184612c67565b92915050565b7f4e487b7100000000000000000000000000000000000000000000000000000000600052602260045260246000fd5b60006002820490506001821680612cd857607f821691505b60208210811415612cec57612ceb612c91565b5b50919050565b7f4552433732313a20617070726f76616c20746f2063757272656e74206f776e6560008201527f7200000000000000000000000000000000000000000000000000000000000000602082015250565b6000612d4e6021836124e6565b9150612d5982612cf2565b604082019050919050565b60006020820190508181036000830152612d7d81612d41565b9050919050565b7f4552433732313a20617070726f76652063616c6c6572206973206e6f7420746f60008201527f6b656e206f776e6572206e6f7220617070726f76656420666f7220616c6c0000602082015250565b6000612de0603e836124e6565b9150612deb82612d84565b604082019050919050565b60006020820190508181036000830152612e0f81612dd3565b9050919050565b6000604082019050612e2b6000830185612621565b612e386020830184612621565b9392505050565b7f4552433732313a2063616c6c6572206973206e6f7420746f6b656e206f776e6560008201527f72206e6f7220617070726f766564000000000000000000000000000000000000602082015250565b6000612e9b602e836124e6565b9150612ea682612e3f565b604082019050919050565b60006020820190508181036000830152612eca81612e8e565b9050919050565b600081905092915050565b50565b6000612eec600083612ed1565b9150612ef782612edc565b600082019050919050565b6000612f0d82612edf565b9150819050919050565b7f4e487b7100000000000000000000000000000000000000000000000000000000600052603260045260246000fd5b7f4e487b7100000000000000000000000000000000000000000000000000000000600052601160045260246000fd5b6000612f80826123d8565b9150612f8b836123d8565b9250827fffffffffffffffffffffffffffffffffffffffffffffffffffffffffffffffff03821115612fc057612fbf612f46565b5b828201905092915050565b6000612fd6826123d8565b91507fffffffffffffffffffffffffffffffffffffffffffffffffffffffffffffffff82141561300957613008612f46565b5b600182019050919050565b7f4552433732313a20696e76616c696420746f6b656e2049440000000000000000600082015250565b600061304a6018836124e6565b915061305582613014565b602082019050919050565b600060208201905081810360008301526130798161303d565b9050919050565b7f4552433732313a2061646472657373207a65726f206973206e6f74206120766160008201527f6c6964206f776e65720000000000000000000000000000000000000000000000602082015250565b60006130dc6029836124e6565b91506130e782613080565b604082019050919050565b6000602082019050818103600083015261310b816130cf565b9050919050565b6000819050919050565b61312581613112565b82525050565b600067ffffffffffffffff82169050919050565b6131488161312b565b82525050565b600061ffff82169050919050565b6131658161314e565b82525050565b600063ffffffff82169050919050565b6131848161316b565b82525050565b600060a08201905061319f600083018861311c565b6131ac602083018761313f565b6131b9604083018661315c565b6131c6606083018561317b565b6131d3608083018461317b565b9695505050505050565b6000815190506131ec81612596565b92915050565b60006020828403121561320857613207612416565b5b6000613216848285016131dd565b91505092915050565b600081905092915050565b6000613235826124db565b61323f818561321f565b935061324f8185602086016124f7565b80840191505092915050565b6000613267828561322a565b9150613273828461322a565b91508190509392505050565b7f4f776e61626c653a206e6577206f776e657220697320746865207a65726f206160008201527f6464726573730000000000000000000000000000000000000000000000000000602082015250565b60006132db6026836124e6565b91506132e68261327f565b604082019050919050565b6000602082019050818103600083015261330a816132ce565b9050919050565b7f4e487b7100000000000000000000000000000000000000000000000000000000600052601260045260246000fd5b600061334b826123d8565b9150613356836123d8565b92508261336657613365613311565b5b828206905092915050565b60006040820190506133866000830185612916565b6133936020830184612621565b9392505050565b7f4552433732313a207472616e736665722066726f6d20696e636f72726563742060008201527f6f776e6572000000000000000000000000000000000000000000000000000000602082015250565b60006133f66025836124e6565b91506134018261339a565b604082019050919050565b60006020820190508181036000830152613425816133e9565b9050919050565b7f4552433732313a207472616e7366657220746f20746865207a65726f2061646460008201527f7265737300000000000000000000000000000000000000000000000000000000602082015250565b60006134886024836124e6565b91506134938261342c565b604082019050919050565b600060208201905081810360008301526134b78161347b565b9050919050565b60006134c9826123d8565b91506134d4836123d8565b9250828210156134e7576134e6612f46565b5b828203905092915050565b7f4f776e61626c653a2063616c6c6572206973206e6f7420746865206f776e6572600082015250565b60006135286020836124e6565b9150613533826134f2565b602082019050919050565b600060208201905081810360008301526135578161351b565b9050919050565b7f4552433732313a20617070726f766520746f2063616c6c657200000000000000600082015250565b60006135946019836124e6565b915061359f8261355e565b602082019050919050565b600060208201905081810360008301526135c381613587565b9050919050565b7f4552433732313a207472616e7366657220746f206e6f6e20455243373231526560008201527f63656976657220696d706c656d656e7465720000000000000000000000000000602082015250565b60006136266032836124e6565b9150613631826135ca565b604082019050919050565b6000602082019050818103600083015261365581613619565b9050919050565b7f45524337323155524953746f726167653a2055524920736574206f66206e6f6e60008201527f6578697374656e7420746f6b656e000000000000000000000000000000000000602082015250565b60006136b8602e836124e6565b91506136c38261365c565b604082019050919050565b600060208201905081810360008301526136e7816136ab565b9050919050565b600081519050919050565b600082825260208201905092915050565b6000613715826136ee565b61371f81856136f9565b935061372f8185602086016124f7565b6137388161252a565b840191505092915050565b60006080820190506137586000830187612621565b6137656020830186612621565b61377260408301856123e2565b8181036060830152613784818461370a565b905095945050505050565b60008151905061379e8161244c565b92915050565b6000602082840312156137ba576137b9612416565b5b60006137c88482850161378f565b91505092915050565b60006137dc826123d8565b91506137e7836123d8565b9250826137f7576137f6613311565b5b828204905092915050565b7f4552433732313a206d696e7420746f20746865207a65726f2061646472657373600082015250565b60006138386020836124e6565b915061384382613802565b602082019050919050565b600060208201905081810360008301526138678161382b565b9050919050565b7f4552433732313a20746f6b656e20616c7265616479206d696e74656400000000600082015250565b60006138a4601c836124e6565b91506138af8261386e565b602082019050919050565b600060208201905081810360008301526138d381613897565b905091905056fea2646970667358221220c1bc61d304f47141ab5ef9c3ecabd67f66aaaf0d4244edc44c242b9c9ac333bd64736f6c63430008080033",
  "linkReferences": {},
  "deployedLinkReferences": {}
}